{
  "_format": "hh-sol-artifact-1",
  "contractName": "MotivatorFactory",
  "sourceName": "contracts/MotivatorFactory.sol",
  "abi": [
    {
      "inputs": [
        {
          "internalType": "address",
          "name": "_worstEnemy",
          "type": "address"
        },
        {
          "internalType": "address",
          "name": "_motivatorJudge",
          "type": "address"
        }
      ],
      "name": "createTrueMotivator",
      "outputs": [
        {
          "internalType": "bool",
          "name": "trueMotivatorCreated",
          "type": "bool"
        }
      ],
      "stateMutability": "nonpayable",
      "type": "function"
    },
    {
      "inputs": [
        {
          "internalType": "uint256",
          "name": "",
          "type": "uint256"
        }
      ],
      "name": "trueMotivators",
      "outputs": [
        {
          "internalType": "contract TrueMotivator",
          "name": "",
          "type": "address"
        }
      ],
      "stateMutability": "view",
      "type": "function"
    }
  ],
  "bytecode": "0x608060405234801561001057600080fd5b50611029806100206000396000f3fe608060405234801561001057600080fd5b50600436106100365760003560e01c806378ebceca1461003b578063df2e3a451461006b575b600080fd5b610055600480360381019061005091906101f1565b61009b565b604051610062919061024c565b60405180910390f35b6100856004803603810190610080919061029d565b610142565b6040516100929190610329565b60405180910390f35b6000803384846040516100ad90610181565b6100b993929190610353565b604051809103906000f0801580156100d5573d6000803e3d6000fd5b5090506000819080600181540180825580915050600190039060005260206000200160009091909190916101000a81548173ffffffffffffffffffffffffffffffffffffffff021916908373ffffffffffffffffffffffffffffffffffffffff1602179055505092915050565b6000818154811061015257600080fd5b906000526020600020016000915054906101000a900473ffffffffffffffffffffffffffffffffffffffff1681565b610c698061038b83390190565b600080fd5b600073ffffffffffffffffffffffffffffffffffffffff82169050919050565b60006101be82610193565b9050919050565b6101ce816101b3565b81146101d957600080fd5b50565b6000813590506101eb816101c5565b92915050565b600080604083850312156102085761020761018e565b5b6000610216858286016101dc565b9250506020610227858286016101dc565b9150509250929050565b60008115159050919050565b61024681610231565b82525050565b6000602082019050610261600083018461023d565b92915050565b6000819050919050565b61027a81610267565b811461028557600080fd5b50565b60008135905061029781610271565b92915050565b6000602082840312156102b3576102b261018e565b5b60006102c184828501610288565b91505092915050565b6000819050919050565b60006102ef6102ea6102e584610193565b6102ca565b610193565b9050919050565b6000610301826102d4565b9050919050565b6000610313826102f6565b9050919050565b61032381610308565b82525050565b600060208201905061033e600083018461031a565b92915050565b61034d816101b3565b82525050565b60006060820190506103686000830186610344565b6103756020830185610344565b6103826040830184610344565b94935050505056fe608060405234801561001057600080fd5b50604051610c69380380610c698339818101604052810190610032919061015f565b826000806101000a81548173ffffffffffffffffffffffffffffffffffffffff021916908373ffffffffffffffffffffffffffffffffffffffff16021790555081600160006101000a81548173ffffffffffffffffffffffffffffffffffffffff021916908373ffffffffffffffffffffffffffffffffffffffff16021790555080600260006101000a81548173ffffffffffffffffffffffffffffffffffffffff021916908373ffffffffffffffffffffffffffffffffffffffff1602179055505050506101b2565b600080fd5b600073ffffffffffffffffffffffffffffffffffffffff82169050919050565b600061012c82610101565b9050919050565b61013c81610121565b811461014757600080fd5b50565b60008151905061015981610133565b92915050565b600080600060608486031215610178576101776100fc565b5b60006101868682870161014a565b93505060206101978682870161014a565b92505060406101a88682870161014a565b9150509250925092565b610aa8806101c16000396000f3fe6080604052600436106100865760003560e01c8063a71cf71511610059578063a71cf715146100fb578063bdcf04fe14610112578063e783996c1461013d578063f926eadd14610159578063fa318e991461018257610086565b806303cd88801461008b578063146901db146100b657806327e8c41e146100cd5780633dd5d753146100e4575b600080fd5b34801561009757600080fd5b506100a06101ad565b6040516100ad91906106c4565b60405180910390f35b3480156100c257600080fd5b506100cb6101c0565b005b3480156100d957600080fd5b506100e26101ec565b005b3480156100f057600080fd5b506100f9610219565b005b34801561010757600080fd5b5061011061034d565b005b34801561011e57600080fd5b50610127610481565b604051610134919061076f565b60405180910390f35b610157600480360381019061015291906107db565b61051e565b005b34801561016557600080fd5b50610180600480360381019061017b9190610866565b61055b565b005b34801561018e57600080fd5b50610197610624565b6040516101a491906108a2565b60405180910390f35b600260149054906101000a900460ff1681565b60028060146101000a81548160ff021916908360028111156101e5576101e461064d565b5b0217905550565b6001600260146101000a81548160ff021916908360028111156102125761021161064d565b5b0217905550565b60028081111561022c5761022b61064d565b5b600260149054906101000a900460ff16600281111561024e5761024d61064d565b5b14610285576040517fa4cbc12100000000000000000000000000000000000000000000000000000000815260040160405180910390fd5b6000600160009054906101000a900473ffffffffffffffffffffffffffffffffffffffff1673ffffffffffffffffffffffffffffffffffffffff16476040516102cd906108ee565b60006040518083038185875af1925050503d806000811461030a576040519150601f19603f3d011682016040523d82523d6000602084013e61030f565b606091505b505090508061034a576040517f90b8ec1800000000000000000000000000000000000000000000000000000000815260040160405180910390fd5b50565b600160028111156103615761036061064d565b5b600260149054906101000a900460ff1660028111156103835761038261064d565b5b146103ba576040517f2467eef600000000000000000000000000000000000000000000000000000000815260040160405180910390fd5b60008060009054906101000a900473ffffffffffffffffffffffffffffffffffffffff1673ffffffffffffffffffffffffffffffffffffffff1647604051610401906108ee565b60006040518083038185875af1925050503d806000811461043e576040519150601f19603f3d011682016040523d82523d6000602084013e610443565b606091505b505090508061047e576040517f90b8ec1800000000000000000000000000000000000000000000000000000000815260040160405180910390fd5b50565b6060600260009054906101000a900473ffffffffffffffffffffffffffffffffffffffff1673ffffffffffffffffffffffffffffffffffffffff1663bef3a2f06040518163ffffffff1660e01b8152600401600060405180830381865afa1580156104f0573d6000803e3d6000fd5b505050506040513d6000823e3d601f19601f820116820180604052508101906105199190610a29565b905090565b80341015610558576040517fec943a3900000000000000000000000000000000000000000000000000000000815260040160405180910390fd5b50565b60008054906101000a900473ffffffffffffffffffffffffffffffffffffffff1673ffffffffffffffffffffffffffffffffffffffff163373ffffffffffffffffffffffffffffffffffffffff16146105e0576040517f073b27fa00000000000000000000000000000000000000000000000000000000815260040160405180910390fd5b80600260006101000a81548173ffffffffffffffffffffffffffffffffffffffff021916908373ffffffffffffffffffffffffffffffffffffffff16021790555050565b60008060009054906101000a900473ffffffffffffffffffffffffffffffffffffffff16905090565b7f4e487b7100000000000000000000000000000000000000000000000000000000600052602160045260246000fd5b6003811061068d5761068c61064d565b5b50565b600081905061069e8261067c565b919050565b60006106ae82610690565b9050919050565b6106be816106a3565b82525050565b60006020820190506106d960008301846106b5565b92915050565b600081519050919050565b600082825260208201905092915050565b60005b838110156107195780820151818401526020810190506106fe565b60008484015250505050565b6000601f19601f8301169050919050565b6000610741826106df565b61074b81856106ea565b935061075b8185602086016106fb565b61076481610725565b840191505092915050565b600060208201905081810360008301526107898184610736565b905092915050565b6000604051905090565b600080fd5b600080fd5b6000819050919050565b6107b8816107a5565b81146107c357600080fd5b50565b6000813590506107d5816107af565b92915050565b6000602082840312156107f1576107f061079b565b5b60006107ff848285016107c6565b91505092915050565b600073ffffffffffffffffffffffffffffffffffffffff82169050919050565b600061083382610808565b9050919050565b61084381610828565b811461084e57600080fd5b50565b6000813590506108608161083a565b92915050565b60006020828403121561087c5761087b61079b565b5b600061088a84828501610851565b91505092915050565b61089c81610828565b82525050565b60006020820190506108b76000830184610893565b92915050565b600081905092915050565b50565b60006108d86000836108bd565b91506108e3826108c8565b600082019050919050565b60006108f9826108cb565b9150819050919050565b600080fd5b600080fd5b7f4e487b7100000000000000000000000000000000000000000000000000000000600052604160045260246000fd5b61094582610725565b810181811067ffffffffffffffff821117156109645761096361090d565b5b80604052505050565b6000610977610791565b9050610983828261093c565b919050565b600067ffffffffffffffff8211156109a3576109a261090d565b5b6109ac82610725565b9050602081019050919050565b60006109cc6109c784610988565b61096d565b9050828152602081018484840111156109e8576109e7610908565b5b6109f38482856106fb565b509392505050565b600082601f830112610a1057610a0f610903565b5b8151610a208482602086016109b9565b91505092915050565b600060208284031215610a3f57610a3e61079b565b5b600082015167ffffffffffffffff811115610a5d57610a5c6107a0565b5b610a69848285016109fb565b9150509291505056fea2646970667358221220daf3bbe618fb3a763a02dd829de411051e69b1529b0dbf35cdf6fcb9390b301064736f6c63430008120033a26469706673582212202fd6ee027db456a9c0b6269f78fe808da7e1ea21cefec23c1cc8376c3665c8ef64736f6c63430008120033",
  "linkReferences": {},
  "deployedLinkReferences": {}
}