{
  "_format": "hh-sol-artifact-1",
  "contractName": "MotivatorJudge",
  "sourceName": "contracts/MotivatorJudge.sol",
  "abi": [
    {
      "inputs": [
        {
          "internalType": "address",
          "name": "oracle",
          "type": "address"
        }
      ],
      "stateMutability": "nonpayable",
      "type": "constructor"
    },
    {
      "inputs": [],
      "name": "EmptyArgs",
      "type": "error"
    },
    {
      "inputs": [],
      "name": "EmptySecrets",
      "type": "error"
    },
    {
      "inputs": [],
      "name": "EmptySource",
      "type": "error"
    },
    {
      "inputs": [],
      "name": "RequestIsAlreadyPending",
      "type": "error"
    },
    {
      "inputs": [],
      "name": "RequestIsNotPending",
      "type": "error"
    },
    {
      "inputs": [],
      "name": "SenderIsNotRegistry",
      "type": "error"
    },
    {
      "anonymous": false,
      "inputs": [
        {
          "indexed": true,
          "internalType": "bytes32",
          "name": "requestId",
          "type": "bytes32"
        },
        {
          "indexed": false,
          "internalType": "bytes",
          "name": "result",
          "type": "bytes"
        },
        {
          "indexed": false,
          "internalType": "bytes",
          "name": "err",
          "type": "bytes"
        }
      ],
      "name": "OCRResponse",
      "type": "event"
    },
    {
      "anonymous": false,
      "inputs": [
        {
          "indexed": true,
          "internalType": "address",
          "name": "from",
          "type": "address"
        },
        {
          "indexed": true,
          "internalType": "address",
          "name": "to",
          "type": "address"
        }
      ],
      "name": "OwnershipTransferRequested",
      "type": "event"
    },
    {
      "anonymous": false,
      "inputs": [
        {
          "indexed": true,
          "internalType": "address",
          "name": "from",
          "type": "address"
        },
        {
          "indexed": true,
          "internalType": "address",
          "name": "to",
          "type": "address"
        }
      ],
      "name": "OwnershipTransferred",
      "type": "event"
    },
    {
      "anonymous": false,
      "inputs": [
        {
          "indexed": true,
          "internalType": "bytes32",
          "name": "id",
          "type": "bytes32"
        }
      ],
      "name": "RequestFulfilled",
      "type": "event"
    },
    {
      "anonymous": false,
      "inputs": [
        {
          "indexed": true,
          "internalType": "bytes32",
          "name": "id",
          "type": "bytes32"
        }
      ],
      "name": "RequestSent",
      "type": "event"
    },
    {
      "inputs": [],
      "name": "acceptOwnership",
      "outputs": [],
      "stateMutability": "nonpayable",
      "type": "function"
    },
    {
      "inputs": [
        {
          "internalType": "address",
          "name": "oracleAddress",
          "type": "address"
        },
        {
          "internalType": "bytes32",
          "name": "requestId",
          "type": "bytes32"
        }
      ],
      "name": "addSimulatedRequestId",
      "outputs": [],
      "stateMutability": "nonpayable",
      "type": "function"
    },
    {
      "inputs": [
        {
          "components": [
            {
              "internalType": "enum Functions.Location",
              "name": "codeLocation",
              "type": "uint8"
            },
            {
              "internalType": "enum Functions.Location",
              "name": "secretsLocation",
              "type": "uint8"
            },
            {
              "internalType": "enum Functions.CodeLanguage",
              "name": "language",
              "type": "uint8"
            },
            {
              "internalType": "string",
              "name": "source",
              "type": "string"
            },
            {
              "internalType": "bytes",
              "name": "secrets",
              "type": "bytes"
            },
            {
              "internalType": "string[]",
              "name": "args",
              "type": "string[]"
            }
          ],
          "internalType": "struct Functions.Request",
          "name": "req",
          "type": "tuple"
        },
        {
          "internalType": "uint64",
          "name": "subscriptionId",
          "type": "uint64"
        },
        {
          "internalType": "uint32",
          "name": "gasLimit",
          "type": "uint32"
        },
        {
          "internalType": "uint256",
          "name": "gasPrice",
          "type": "uint256"
        }
      ],
      "name": "estimateCost",
      "outputs": [
        {
          "internalType": "uint96",
          "name": "",
          "type": "uint96"
        }
      ],
      "stateMutability": "view",
      "type": "function"
    },
    {
      "inputs": [
        {
          "internalType": "string",
          "name": "source",
          "type": "string"
        },
        {
          "internalType": "bytes",
          "name": "secrets",
          "type": "bytes"
        },
        {
          "internalType": "string[]",
          "name": "args",
          "type": "string[]"
        },
        {
          "internalType": "uint64",
          "name": "subscriptionId",
          "type": "uint64"
        },
        {
          "internalType": "uint32",
          "name": "gasLimit",
          "type": "uint32"
        }
      ],
      "name": "executeRequest",
      "outputs": [
        {
          "internalType": "bytes32",
          "name": "",
          "type": "bytes32"
        }
      ],
      "stateMutability": "nonpayable",
      "type": "function"
    },
    {
      "inputs": [],
      "name": "getDONPublicKey",
      "outputs": [
        {
          "internalType": "bytes",
          "name": "",
          "type": "bytes"
        }
      ],
      "stateMutability": "view",
      "type": "function"
    },
    {
      "inputs": [
        {
          "internalType": "bytes32",
          "name": "requestId",
          "type": "bytes32"
        },
        {
          "internalType": "bytes",
          "name": "response",
          "type": "bytes"
        },
        {
          "internalType": "bytes",
          "name": "err",
          "type": "bytes"
        }
      ],
      "name": "handleOracleFulfillment",
      "outputs": [],
      "stateMutability": "nonpayable",
      "type": "function"
    },
    {
      "inputs": [],
      "name": "latestError",
      "outputs": [
        {
          "internalType": "bytes",
          "name": "",
          "type": "bytes"
        }
      ],
      "stateMutability": "view",
      "type": "function"
    },
    {
      "inputs": [],
      "name": "latestRequestId",
      "outputs": [
        {
          "internalType": "bytes32",
          "name": "",
          "type": "bytes32"
        }
      ],
      "stateMutability": "view",
      "type": "function"
    },
    {
      "inputs": [],
      "name": "latestResponse",
      "outputs": [
        {
          "internalType": "bytes",
          "name": "",
          "type": "bytes"
        }
      ],
      "stateMutability": "view",
      "type": "function"
    },
    {
      "inputs": [],
      "name": "owner",
      "outputs": [
        {
          "internalType": "address",
          "name": "",
          "type": "address"
        }
      ],
      "stateMutability": "view",
      "type": "function"
    },
    {
      "inputs": [
        {
          "internalType": "address",
          "name": "to",
          "type": "address"
        }
      ],
      "name": "transferOwnership",
      "outputs": [],
      "stateMutability": "nonpayable",
      "type": "function"
    },
    {
      "inputs": [
        {
          "internalType": "address",
          "name": "oracle",
          "type": "address"
        }
      ],
      "name": "updateOracleAddress",
      "outputs": [],
      "stateMutability": "nonpayable",
      "type": "function"
    }
  ],
  "bytecode": "0x60806040523480156200001157600080fd5b506040516200312538038062003125833981810160405281019062000037919062000330565b33806000836200004d816200015260201b60201c565b50600073ffffffffffffffffffffffffffffffffffffffff168273ffffffffffffffffffffffffffffffffffffffff1603620000c0576040517f08c379a0000000000000000000000000000000000000000000000000000000008152600401620000b790620003c3565b60405180910390fd5b81600260006101000a81548173ffffffffffffffffffffffffffffffffffffffff021916908373ffffffffffffffffffffffffffffffffffffffff160217905550600073ffffffffffffffffffffffffffffffffffffffff168173ffffffffffffffffffffffffffffffffffffffff1614620001485762000147816200019560201b60201c565b5b5050505062000457565b806000806101000a81548173ffffffffffffffffffffffffffffffffffffffff021916908373ffffffffffffffffffffffffffffffffffffffff16021790555050565b3373ffffffffffffffffffffffffffffffffffffffff168173ffffffffffffffffffffffffffffffffffffffff160362000206576040517f08c379a0000000000000000000000000000000000000000000000000000000008152600401620001fd9062000435565b60405180910390fd5b80600360006101000a81548173ffffffffffffffffffffffffffffffffffffffff021916908373ffffffffffffffffffffffffffffffffffffffff1602179055508073ffffffffffffffffffffffffffffffffffffffff16600260009054906101000a900473ffffffffffffffffffffffffffffffffffffffff1673ffffffffffffffffffffffffffffffffffffffff167fed8889f560326eb138920d842192f0eb3dd22b4f139c87a2c57538e05bae127860405160405180910390a350565b600080fd5b600073ffffffffffffffffffffffffffffffffffffffff82169050919050565b6000620002f882620002cb565b9050919050565b6200030a81620002eb565b81146200031657600080fd5b50565b6000815190506200032a81620002ff565b92915050565b600060208284031215620003495762000348620002c6565b5b6000620003598482850162000319565b91505092915050565b600082825260208201905092915050565b7f43616e6e6f7420736574206f776e657220746f207a65726f0000000000000000600082015250565b6000620003ab60188362000362565b9150620003b88262000373565b602082019050919050565b60006020820190508181036000830152620003de816200039c565b9050919050565b7f43616e6e6f74207472616e7366657220746f2073656c66000000000000000000600082015250565b60006200041d60178362000362565b91506200042a82620003e5565b602082019050919050565b6000602082019050818103600083015262000450816200040e565b9050919050565b612cbe80620004676000396000f3fe608060405234801561001057600080fd5b50600436106100b45760003560e01c8063bef3a2f011610071578063bef3a2f014610167578063d328a91e14610185578063d4b39175146101a3578063f2fde38b146101d3578063f7023bb6146101ef578063fffeb84e1461020b576100b4565b80630ca76175146100b95780631aa46f59146100d557806327714589146100f357806330bda99d1461012357806379ba50971461013f5780638da5cb5b14610149575b600080fd5b6100d360048036038101906100ce91906119d0565b610229565b005b6100dd610336565b6040516100ea9190611a6a565b60405180910390f35b61010d60048036038101906101089190611c0d565b61033c565b60405161011a9190611a6a565b60405180910390f35b61013d60048036038101906101389190611d47565b610461565b005b610147610477565b005b61015161060e565b60405161015e9190611d96565b60405180910390f35b61016f610638565b60405161017c9190611e30565b60405180910390f35b61018d6106c6565b60405161019a9190611e30565b60405180910390f35b6101bd60048036038101906101b89190612152565b610761565b6040516101ca91906121fc565b60405180910390f35b6101ed60048036038101906101e89190612217565b610816565b005b61020960048036038101906102049190612217565b61082a565b005b61021361083e565b6040516102209190611e30565b60405180910390f35b826001600082815260200190815260200160002060009054906101000a900473ffffffffffffffffffffffffffffffffffffffff1673ffffffffffffffffffffffffffffffffffffffff163373ffffffffffffffffffffffffffffffffffffffff16146102c2576040517fa0c5ec6300000000000000000000000000000000000000000000000000000000815260040160405180910390fd5b6001600082815260200190815260200160002060006101000a81549073ffffffffffffffffffffffffffffffffffffffff0219169055807f85e1543bf2f84fe80c6badbce3648c8539ad1df4d2b3d822938ca0538be727e660405160405180910390a26103308484846108cc565b50505050565b60045481565b600061034661092b565b61034e6117bb565b6103aa6000808c8c8080601f016020809104026020016040519081016040528093929190818152602001838380828437600081840152601f19601f82011690508083019250505050505050846109bd909392919063ffffffff16565b600088889050111561040e5761040d88888080601f016020809104026020016040519081016040528093929190818152602001838380828437600081840152601f19601f8201169050808301925050505050505082610a6790919063ffffffff16565b5b600086869050111561043a5761043986869061042a9190612244565b82610ae090919063ffffffff16565b5b6000610447828686610b28565b905080600481905550809250505098975050505050505050565b61046961092b565b6104738282610ced565b5050565b600360009054906101000a900473ffffffffffffffffffffffffffffffffffffffff1673ffffffffffffffffffffffffffffffffffffffff163373ffffffffffffffffffffffffffffffffffffffff1614610507576040517f08c379a00000000000000000000000000000000000000000000000000000000081526004016104fe906122b6565b60405180910390fd5b6000600260009054906101000a900473ffffffffffffffffffffffffffffffffffffffff16905033600260006101000a81548173ffffffffffffffffffffffffffffffffffffffff021916908373ffffffffffffffffffffffffffffffffffffffff1602179055506000600360006101000a81548173ffffffffffffffffffffffffffffffffffffffff021916908373ffffffffffffffffffffffffffffffffffffffff1602179055503373ffffffffffffffffffffffffffffffffffffffff168173ffffffffffffffffffffffffffffffffffffffff167f8be0079c531659141344cd1fd0a4f28419497f9722a3daafe3b4186f6b6457e060405160405180910390a350565b6000600260009054906101000a900473ffffffffffffffffffffffffffffffffffffffff16905090565b6005805461064590612305565b80601f016020809104026020016040519081016040528092919081815260200182805461067190612305565b80156106be5780601f10610693576101008083540402835291602001916106be565b820191906000526020600020905b8154815290600101906020018083116106a157829003601f168201915b505050505081565b606060008054906101000a900473ffffffffffffffffffffffffffffffffffffffff1673ffffffffffffffffffffffffffffffffffffffff1663d328a91e6040518163ffffffff1660e01b8152600401600060405180830381865afa158015610733573d6000803e3d6000fd5b505050506040513d6000823e3d601f19601f8201168201806040525081019061075c91906123a6565b905090565b60008060009054906101000a900473ffffffffffffffffffffffffffffffffffffffff1673ffffffffffffffffffffffffffffffffffffffff1663d227d245856107aa88610dde565b86866040518563ffffffff1660e01b81526004016107cb949392919061241c565b602060405180830381865afa1580156107e8573d6000803e3d6000fd5b505050506040513d601f19601f8201168201806040525081019061080c9190612494565b9050949350505050565b61081e61092b565b610827816110e0565b50565b61083261092b565b61083b8161120e565b50565b6006805461084b90612305565b80601f016020809104026020016040519081016040528092919081815260200182805461087790612305565b80156108c45780601f10610899576101008083540402835291602001916108c4565b820191906000526020600020905b8154815290600101906020018083116108a757829003601f168201915b505050505081565b81600590816108db919061266d565b5080600690816108eb919061266d565b50827f7bab0ec163b5c132c72b8146ac4d6e067e82ed58f8b131150aa71c9258911562838360405161091e92919061273f565b60405180910390a2505050565b600260009054906101000a900473ffffffffffffffffffffffffffffffffffffffff1673ffffffffffffffffffffffffffffffffffffffff163373ffffffffffffffffffffffffffffffffffffffff16146109bb576040517f08c379a00000000000000000000000000000000000000000000000000000000081526004016109b2906127c2565b60405180910390fd5b565b60008151036109f8576040517f22ce3edd00000000000000000000000000000000000000000000000000000000815260040160405180910390fd5b8284600001906001811115610a1057610a0f6127e2565b5b90816001811115610a2457610a236127e2565b5b815250508184604001906000811115610a4057610a3f6127e2565b5b90816000811115610a5457610a536127e2565b5b8152505080846060018190525050505050565b6000815103610aa2576040517fe889636f00000000000000000000000000000000000000000000000000000000815260040160405180910390fd5b600182602001906001811115610abb57610aba6127e2565b5b90816001811115610acf57610ace6127e2565b5b815250508082608001819052505050565b6000815103610b1b576040517ffe936cb700000000000000000000000000000000000000000000000000000000815260040160405180910390fd5b808260a001819052505050565b60008060008054906101000a900473ffffffffffffffffffffffffffffffffffffffff1673ffffffffffffffffffffffffffffffffffffffff166328242b0485610b7188610dde565b866040518463ffffffff1660e01b8152600401610b9093929190612811565b6020604051808303816000875af1158015610baf573d6000803e3d6000fd5b505050506040513d601f19601f82011682018060405250810190610bd39190612864565b905060008054906101000a900473ffffffffffffffffffffffffffffffffffffffff1673ffffffffffffffffffffffffffffffffffffffff16635ab1bd536040518163ffffffff1660e01b8152600401602060405180830381865afa158015610c40573d6000803e3d6000fd5b505050506040513d601f19601f82011682018060405250810190610c6491906128a6565b6001600083815260200190815260200160002060006101000a81548173ffffffffffffffffffffffffffffffffffffffff021916908373ffffffffffffffffffffffffffffffffffffffff160217905550807f1131472297a800fee664d1d89cfa8f7676ff07189ecc53f80bbb5f4969099db860405160405180910390a2809150509392505050565b80600073ffffffffffffffffffffffffffffffffffffffff166001600083815260200190815260200160002060009054906101000a900473ffffffffffffffffffffffffffffffffffffffff1673ffffffffffffffffffffffffffffffffffffffff1614610d87576040517f8b457ad200000000000000000000000000000000000000000000000000000000815260040160405180910390fd5b826001600084815260200190815260200160002060006101000a81548173ffffffffffffffffffffffffffffffffffffffff021916908373ffffffffffffffffffffffffffffffffffffffff160217905550505050565b6060610de8611826565b610df481610100611251565b50610e3d6040518060400160405280600c81526020017f636f64654c6f636174696f6e0000000000000000000000000000000000000000815250826112bb90919063ffffffff16565b610e6683600001516001811115610e5757610e566127e2565b5b826112e090919063ffffffff16565b610eae6040518060400160405280600881526020017f6c616e6775616765000000000000000000000000000000000000000000000000815250826112bb90919063ffffffff16565b610ed783604001516000811115610ec857610ec76127e2565b5b826112e090919063ffffffff16565b610f1f6040518060400160405280600681526020017f736f757263650000000000000000000000000000000000000000000000000000815250826112bb90919063ffffffff16565b610f368360600151826112bb90919063ffffffff16565b60008360a00151511115610ff457610f8c6040518060400160405280600481526020017f6172677300000000000000000000000000000000000000000000000000000000815250826112bb90919063ffffffff16565b610f9581611310565b60005b8360a0015151811015610fe957610fd68460a001518281518110610fbf57610fbe6128d3565b5b6020026020010151836112bb90919063ffffffff16565b8080610fe190612931565b915050610f98565b50610ff38161131e565b5b600083608001515111156110d35761104a6040518060400160405280600f81526020017f736563726574734c6f636174696f6e0000000000000000000000000000000000815250826112bb90919063ffffffff16565b61107383602001516001811115611064576110636127e2565b5b826112e090919063ffffffff16565b6110bb6040518060400160405280600781526020017f7365637265747300000000000000000000000000000000000000000000000000815250826112bb90919063ffffffff16565b6110d283608001518261132c90919063ffffffff16565b5b8060000151915050919050565b3373ffffffffffffffffffffffffffffffffffffffff168173ffffffffffffffffffffffffffffffffffffffff160361114e576040517f08c379a0000000000000000000000000000000000000000000000000000000008152600401611145906129c5565b60405180910390fd5b80600360006101000a81548173ffffffffffffffffffffffffffffffffffffffff021916908373ffffffffffffffffffffffffffffffffffffffff1602179055508073ffffffffffffffffffffffffffffffffffffffff16600260009054906101000a900473ffffffffffffffffffffffffffffffffffffffff1673ffffffffffffffffffffffffffffffffffffffff167fed8889f560326eb138920d842192f0eb3dd22b4f139c87a2c57538e05bae127860405160405180910390a350565b806000806101000a81548173ffffffffffffffffffffffffffffffffffffffff021916908373ffffffffffffffffffffffffffffffffffffffff16021790555050565b611259611826565b60006020836112689190612a14565b146112945760208261127a9190612a14565b60206112869190612a45565b826112919190612a79565b91505b81836020018181525050604051808452600081528281016020016040525082905092915050565b6112c88260038351611351565b6112db81836114d690919063ffffffff16565b505050565b67ffffffffffffffff8111156112ff576112fa82826114f8565b61130c565b61130b82600083611351565b5b5050565b61131b816004611544565b50565b611329816007611544565b50565b6113398260028351611351565b61134c81836114d690919063ffffffff16565b505050565b60178167ffffffffffffffff1611611388576113828160058460ff16901b60ff16178461156690919063ffffffff16565b506114d1565b60ff8167ffffffffffffffff16116113de576113b7601860058460ff16901b178461156690919063ffffffff16565b506113d88167ffffffffffffffff166001856115869092919063ffffffff16565b506114d0565b61ffff8167ffffffffffffffff16116114355761140e601960058460ff16901b178461156690919063ffffffff16565b5061142f8167ffffffffffffffff166002856115869092919063ffffffff16565b506114cf565b63ffffffff8167ffffffffffffffff161161148e57611467601a60058460ff16901b178461156690919063ffffffff16565b506114888167ffffffffffffffff166004856115869092919063ffffffff16565b506114ce565b6114ab601b60058460ff16901b178461156690919063ffffffff16565b506114cc8167ffffffffffffffff166008856115869092919063ffffffff16565b505b5b5b5b505050565b6114de611826565b6114f0838460000151518485516115a8565b905092915050565b61151660026005600660ff16901b178361156690919063ffffffff16565b50611540828260405160200161152c9190612aad565b60405160208183030381529060405261132c565b5050565b611561601f60058360ff16901b178361156690919063ffffffff16565b505050565b61156e611826565b61157e8384600001515184611697565b905092915050565b61158e611826565b61159f8485600001515185856116ed565b90509392505050565b6115b0611826565b82518211156115be57600080fd5b846020015182856115cf9190612a79565b1115611604576116038560026115f4886020015188876115ef9190612a79565b61177b565b6115fe9190612ac8565b611797565b5b6000808651805187602083010193508088870111156116235787860182525b60208701925050505b6020841061166a57805182526020826116459190612a79565b91506020816116549190612a79565b90506020846116639190612a45565b935061162c565b60006001856020036101000a03905080198251168184511681811785525050508692505050949350505050565b61169f611826565b836020015183106116c5576116c484600286602001516116bf9190612ac8565b611797565b5b835180516020858301018481538186036116e0576001820183525b5050508390509392505050565b6116f5611826565b846020015184836117069190612a79565b111561172e5761172d856002868561171e9190612a79565b6117289190612ac8565b611797565b5b60006001836101006117409190612c3d565b61174a9190612a45565b9050855183868201018583198251161781528151858801111561176d5784870182525b505085915050949350505050565b60008183111561178d57829050611791565b8190505b92915050565b6000826000015190506117aa8383611251565b506117b583826114d6565b50505050565b6040518060c00160405280600060018111156117da576117d96127e2565b5b8152602001600060018111156117f3576117f26127e2565b5b815260200160008081111561180b5761180a6127e2565b5b81526020016060815260200160608152602001606081525090565b604051806040016040528060608152602001600081525090565b6000604051905090565b600080fd5b600080fd5b6000819050919050565b61186781611854565b811461187257600080fd5b50565b6000813590506118848161185e565b92915050565b600080fd5b600080fd5b6000601f19601f8301169050919050565b7f4e487b7100000000000000000000000000000000000000000000000000000000600052604160045260246000fd5b6118dd82611894565b810181811067ffffffffffffffff821117156118fc576118fb6118a5565b5b80604052505050565b600061190f611840565b905061191b82826118d4565b919050565b600067ffffffffffffffff82111561193b5761193a6118a5565b5b61194482611894565b9050602081019050919050565b82818337600083830152505050565b600061197361196e84611920565b611905565b90508281526020810184848401111561198f5761198e61188f565b5b61199a848285611951565b509392505050565b600082601f8301126119b7576119b661188a565b5b81356119c7848260208601611960565b91505092915050565b6000806000606084860312156119e9576119e861184a565b5b60006119f786828701611875565b935050602084013567ffffffffffffffff811115611a1857611a1761184f565b5b611a24868287016119a2565b925050604084013567ffffffffffffffff811115611a4557611a4461184f565b5b611a51868287016119a2565b9150509250925092565b611a6481611854565b82525050565b6000602082019050611a7f6000830184611a5b565b92915050565b600080fd5b600080fd5b60008083601f840112611aa557611aa461188a565b5b8235905067ffffffffffffffff811115611ac257611ac1611a85565b5b602083019150836001820283011115611ade57611add611a8a565b5b9250929050565b60008083601f840112611afb57611afa61188a565b5b8235905067ffffffffffffffff811115611b1857611b17611a85565b5b602083019150836001820283011115611b3457611b33611a8a565b5b9250929050565b60008083601f840112611b5157611b5061188a565b5b8235905067ffffffffffffffff811115611b6e57611b6d611a85565b5b602083019150836020820283011115611b8a57611b89611a8a565b5b9250929050565b600067ffffffffffffffff82169050919050565b611bae81611b91565b8114611bb957600080fd5b50565b600081359050611bcb81611ba5565b92915050565b600063ffffffff82169050919050565b611bea81611bd1565b8114611bf557600080fd5b50565b600081359050611c0781611be1565b92915050565b60008060008060008060008060a0898b031215611c2d57611c2c61184a565b5b600089013567ffffffffffffffff811115611c4b57611c4a61184f565b5b611c578b828c01611a8f565b9850985050602089013567ffffffffffffffff811115611c7a57611c7961184f565b5b611c868b828c01611ae5565b9650965050604089013567ffffffffffffffff811115611ca957611ca861184f565b5b611cb58b828c01611b3b565b94509450506060611cc88b828c01611bbc565b9250506080611cd98b828c01611bf8565b9150509295985092959890939650565b600073ffffffffffffffffffffffffffffffffffffffff82169050919050565b6000611d1482611ce9565b9050919050565b611d2481611d09565b8114611d2f57600080fd5b50565b600081359050611d4181611d1b565b92915050565b60008060408385031215611d5e57611d5d61184a565b5b6000611d6c85828601611d32565b9250506020611d7d85828601611875565b9150509250929050565b611d9081611d09565b82525050565b6000602082019050611dab6000830184611d87565b92915050565b600081519050919050565b600082825260208201905092915050565b60005b83811015611deb578082015181840152602081019050611dd0565b60008484015250505050565b6000611e0282611db1565b611e0c8185611dbc565b9350611e1c818560208601611dcd565b611e2581611894565b840191505092915050565b60006020820190508181036000830152611e4a8184611df7565b905092915050565b600080fd5b600080fd5b60028110611e6957600080fd5b50565b600081359050611e7b81611e5c565b92915050565b60018110611e8e57600080fd5b50565b600081359050611ea081611e81565b92915050565b600067ffffffffffffffff821115611ec157611ec06118a5565b5b611eca82611894565b9050602081019050919050565b6000611eea611ee584611ea6565b611905565b905082815260208101848484011115611f0657611f0561188f565b5b611f11848285611951565b509392505050565b600082601f830112611f2e57611f2d61188a565b5b8135611f3e848260208601611ed7565b91505092915050565b600067ffffffffffffffff821115611f6257611f616118a5565b5b602082029050602081019050919050565b6000611f86611f8184611f47565b611905565b90508083825260208201905060208402830185811115611fa957611fa8611a8a565b5b835b81811015611ff057803567ffffffffffffffff811115611fce57611fcd61188a565b5b808601611fdb8982611f19565b85526020850194505050602081019050611fab565b5050509392505050565b600082601f83011261200f5761200e61188a565b5b813561201f848260208601611f73565b91505092915050565b600060c0828403121561203e5761203d611e52565b5b61204860c0611905565b9050600061205884828501611e6c565b600083015250602061206c84828501611e6c565b602083015250604061208084828501611e91565b604083015250606082013567ffffffffffffffff8111156120a4576120a3611e57565b5b6120b084828501611f19565b606083015250608082013567ffffffffffffffff8111156120d4576120d3611e57565b5b6120e0848285016119a2565b60808301525060a082013567ffffffffffffffff81111561210457612103611e57565b5b61211084828501611ffa565b60a08301525092915050565b6000819050919050565b61212f8161211c565b811461213a57600080fd5b50565b60008135905061214c81612126565b92915050565b6000806000806080858703121561216c5761216b61184a565b5b600085013567ffffffffffffffff81111561218a5761218961184f565b5b61219687828801612028565b94505060206121a787828801611bbc565b93505060406121b887828801611bf8565b92505060606121c98782880161213d565b91505092959194509250565b60006bffffffffffffffffffffffff82169050919050565b6121f6816121d5565b82525050565b600060208201905061221160008301846121ed565b92915050565b60006020828403121561222d5761222c61184a565b5b600061223b84828501611d32565b91505092915050565b6000612251368484611f73565b905092915050565b600082825260208201905092915050565b7f4d7573742062652070726f706f736564206f776e657200000000000000000000600082015250565b60006122a0601683612259565b91506122ab8261226a565b602082019050919050565b600060208201905081810360008301526122cf81612293565b9050919050565b7f4e487b7100000000000000000000000000000000000000000000000000000000600052602260045260246000fd5b6000600282049050600182168061231d57607f821691505b6020821081036123305761232f6122d6565b5b50919050565b600061234961234484611920565b611905565b9050828152602081018484840111156123655761236461188f565b5b612370848285611dcd565b509392505050565b600082601f83011261238d5761238c61188a565b5b815161239d848260208601612336565b91505092915050565b6000602082840312156123bc576123bb61184a565b5b600082015167ffffffffffffffff8111156123da576123d961184f565b5b6123e684828501612378565b91505092915050565b6123f881611b91565b82525050565b61240781611bd1565b82525050565b6124168161211c565b82525050565b600060808201905061243160008301876123ef565b81810360208301526124438186611df7565b905061245260408301856123fe565b61245f606083018461240d565b95945050505050565b612471816121d5565b811461247c57600080fd5b50565b60008151905061248e81612468565b92915050565b6000602082840312156124aa576124a961184a565b5b60006124b88482850161247f565b91505092915050565b60008190508160005260206000209050919050565b60006020601f8301049050919050565b600082821b905092915050565b6000600883026125237fffffffffffffffffffffffffffffffffffffffffffffffffffffffffffffffff826124e6565b61252d86836124e6565b95508019841693508086168417925050509392505050565b6000819050919050565b600061256a6125656125608461211c565b612545565b61211c565b9050919050565b6000819050919050565b6125848361254f565b61259861259082612571565b8484546124f3565b825550505050565b600090565b6125ad6125a0565b6125b881848461257b565b505050565b5b818110156125dc576125d16000826125a5565b6001810190506125be565b5050565b601f821115612621576125f2816124c1565b6125fb846124d6565b8101602085101561260a578190505b61261e612616856124d6565b8301826125bd565b50505b505050565b600082821c905092915050565b600061264460001984600802612626565b1980831691505092915050565b600061265d8383612633565b9150826002028217905092915050565b61267682611db1565b67ffffffffffffffff81111561268f5761268e6118a5565b5b6126998254612305565b6126a48282856125e0565b600060209050601f8311600181146126d757600084156126c5578287015190505b6126cf8582612651565b865550612737565b601f1984166126e5866124c1565b60005b8281101561270d578489015182556001820191506020850194506020810190506126e8565b8683101561272a5784890151612726601f891682612633565b8355505b6001600288020188555050505b505050505050565b600060408201905081810360008301526127598185611df7565b9050818103602083015261276d8184611df7565b90509392505050565b7f4f6e6c792063616c6c61626c65206279206f776e657200000000000000000000600082015250565b60006127ac601683612259565b91506127b782612776565b602082019050919050565b600060208201905081810360008301526127db8161279f565b9050919050565b7f4e487b7100000000000000000000000000000000000000000000000000000000600052602160045260246000fd5b600060608201905061282660008301866123ef565b81810360208301526128388185611df7565b905061284760408301846123fe565b949350505050565b60008151905061285e8161185e565b92915050565b60006020828403121561287a5761287961184a565b5b60006128888482850161284f565b91505092915050565b6000815190506128a081611d1b565b92915050565b6000602082840312156128bc576128bb61184a565b5b60006128ca84828501612891565b91505092915050565b7f4e487b7100000000000000000000000000000000000000000000000000000000600052603260045260246000fd5b7f4e487b7100000000000000000000000000000000000000000000000000000000600052601160045260246000fd5b600061293c8261211c565b91507fffffffffffffffffffffffffffffffffffffffffffffffffffffffffffffffff820361296e5761296d612902565b5b600182019050919050565b7f43616e6e6f74207472616e7366657220746f2073656c66000000000000000000600082015250565b60006129af601783612259565b91506129ba82612979565b602082019050919050565b600060208201905081810360008301526129de816129a2565b9050919050565b7f4e487b7100000000000000000000000000000000000000000000000000000000600052601260045260246000fd5b6000612a1f8261211c565b9150612a2a8361211c565b925082612a3a57612a396129e5565b5b828206905092915050565b6000612a508261211c565b9150612a5b8361211c565b9250828203905081811115612a7357612a72612902565b5b92915050565b6000612a848261211c565b9150612a8f8361211c565b9250828201905080821115612aa757612aa6612902565b5b92915050565b6000602082019050612ac2600083018461240d565b92915050565b6000612ad38261211c565b9150612ade8361211c565b9250828202612aec8161211c565b91508282048414831517612b0357612b02612902565b5b5092915050565b60008160011c9050919050565b6000808291508390505b6001851115612b6157808604811115612b3d57612b3c612902565b5b6001851615612b4c5780820291505b8081029050612b5a85612b0a565b9450612b21565b94509492505050565b600082612b7a5760019050612c36565b81612b885760009050612c36565b8160018114612b9e5760028114612ba857612bd7565b6001915050612c36565b60ff841115612bba57612bb9612902565b5b8360020a915084821115612bd157612bd0612902565b5b50612c36565b5060208310610133831016604e8410600b8410161715612c0c5782820a905083811115612c0757612c06612902565b5b612c36565b612c198484846001612b17565b92509050818404811115612c3057612c2f612902565b5b81810290505b9392505050565b6000612c488261211c565b9150612c538361211c565b9250612c807fffffffffffffffffffffffffffffffffffffffffffffffffffffffffffffffff8484612b6a565b90509291505056fea2646970667358221220ca787e5ccfd56ebcedcb55d4f6db05d402211b96015e34d4ee155e69a5a5072264736f6c63430008120033",
  "linkReferences": {},
  "deployedLinkReferences": {}
}