{
  "_format": "hh-sol-artifact-1",
  "contractName": "MotivatorFactory",
  "sourceName": "contracts/MotivatorFactory.sol",
  "abi": [
    {
      "anonymous": false,
      "inputs": [
        {
          "indexed": true,
          "internalType": "address",
          "name": "trueMotivator",
          "type": "address"
        }
      ],
      "name": "TrueMotivatorCreated",
      "type": "event"
    },
    {
      "inputs": [
        {
          "internalType": "address",
          "name": "_worstEnemy",
          "type": "address"
        },
        {
          "internalType": "address",
          "name": "_motivatorJudge",
          "type": "address"
        }
      ],
      "name": "createTrueMotivator",
      "outputs": [
        {
          "internalType": "bool",
          "name": "trueMotivatorCreated",
          "type": "bool"
        }
      ],
      "stateMutability": "nonpayable",
      "type": "function"
    },
    {
      "inputs": [],
      "name": "getNumberOfTrueMotivatorsDeployed",
      "outputs": [
        {
          "internalType": "uint256",
          "name": "",
          "type": "uint256"
        }
      ],
      "stateMutability": "view",
      "type": "function"
    },
    {
      "inputs": [
        {
          "internalType": "uint256",
          "name": "",
          "type": "uint256"
        }
      ],
      "name": "trueMotivators",
      "outputs": [
        {
          "internalType": "contract TrueMotivator",
          "name": "",
          "type": "address"
        }
      ],
      "stateMutability": "view",
      "type": "function"
    }
  ],
  "bytecode": "0x608060405234801561001057600080fd5b50610ee7806100206000396000f3fe608060405234801561001057600080fd5b50600436106100415760003560e01c806378ebceca14610046578063d5389acf14610076578063df2e3a4514610094575b600080fd5b610060600480360381019061005b9190610269565b6100c4565b60405161006d91906102c4565b60405180910390f35b61007e6101ae565b60405161008b91906102f8565b60405180910390f35b6100ae60048036038101906100a9919061033f565b6101ba565b6040516100bb91906103cb565b60405180910390f35b6000803384846040516100d6906101f9565b6100e2939291906103f5565b604051809103906000f0801580156100fe573d6000803e3d6000fd5b5090506000819080600181540180825580915050600190039060005260206000200160009091909190916101000a81548173ffffffffffffffffffffffffffffffffffffffff021916908373ffffffffffffffffffffffffffffffffffffffff1602179055508073ffffffffffffffffffffffffffffffffffffffff167f7db6ea323ee1ff916f34577ed9ae7a1ab823dc208f66b11443d88c3c0f52e86b60405160405180910390a25092915050565b60008080549050905090565b600081815481106101ca57600080fd5b906000526020600020016000915054906101000a900473ffffffffffffffffffffffffffffffffffffffff1681565b610a858061042d83390190565b600080fd5b600073ffffffffffffffffffffffffffffffffffffffff82169050919050565b60006102368261020b565b9050919050565b6102468161022b565b811461025157600080fd5b50565b6000813590506102638161023d565b92915050565b600080604083850312156102805761027f610206565b5b600061028e85828601610254565b925050602061029f85828601610254565b9150509250929050565b60008115159050919050565b6102be816102a9565b82525050565b60006020820190506102d960008301846102b5565b92915050565b6000819050919050565b6102f2816102df565b82525050565b600060208201905061030d60008301846102e9565b92915050565b61031c816102df565b811461032757600080fd5b50565b60008135905061033981610313565b92915050565b60006020828403121561035557610354610206565b5b60006103638482850161032a565b91505092915050565b6000819050919050565b600061039161038c6103878461020b565b61036c565b61020b565b9050919050565b60006103a382610376565b9050919050565b60006103b582610398565b9050919050565b6103c5816103aa565b82525050565b60006020820190506103e060008301846103bc565b92915050565b6103ef8161022b565b82525050565b600060608201905061040a60008301866103e6565b61041760208301856103e6565b61042460408301846103e6565b94935050505056fe608060405234801561001057600080fd5b50604051610a85380380610a858339818101604052810190610032919061015f565b826000806101000a81548173ffffffffffffffffffffffffffffffffffffffff021916908373ffffffffffffffffffffffffffffffffffffffff16021790555081600160006101000a81548173ffffffffffffffffffffffffffffffffffffffff021916908373ffffffffffffffffffffffffffffffffffffffff16021790555080600260006101000a81548173ffffffffffffffffffffffffffffffffffffffff021916908373ffffffffffffffffffffffffffffffffffffffff1602179055505050506101b2565b600080fd5b600073ffffffffffffffffffffffffffffffffffffffff82169050919050565b600061012c82610101565b9050919050565b61013c81610121565b811461014757600080fd5b50565b60008151905061015981610133565b92915050565b600080600060608486031215610178576101776100fc565b5b60006101868682870161014a565b93505060206101978682870161014a565b92505060406101a88682870161014a565b9150509250925092565b6108c4806101c16000396000f3fe60806040526004361061003f5760003560e01c8063bdcf04fe14610044578063e783996c1461005b578063f926eadd14610077578063fa318e99146100a0575b600080fd5b34801561005057600080fd5b506100596100cb565b005b6100756004803603810190610070919061053f565b610261565b005b34801561008357600080fd5b5061009e600480360381019061009991906105ca565b6102cb565b005b3480156100ac57600080fd5b506100b56103d7565b6040516100c29190610606565b60405180910390f35b6000600260009054906101000a900473ffffffffffffffffffffffffffffffffffffffff1673ffffffffffffffffffffffffffffffffffffffff1663bef3a2f06040518163ffffffff1660e01b8152600401600060405180830381865afa15801561013a573d6000803e3d6000fd5b505050506040513d6000823e3d601f19601f820116820180604052508101906101639190610782565b90506000818051906020012090507fb10e2d527612073b26eecdfd717e6a320cf44b4afac2b0732d9fcbe2b7fa0cf660001b81036101c5576101c460008054906101000a900473ffffffffffffffffffffffffffffffffffffffff16610400565b5b7f290decd9548b62a8d60345a988386fc84ba6bc95484008f6362f93160ef3e56360001b810361021b5761021a600160009054906101000a900473ffffffffffffffffffffffffffffffffffffffff16610400565b5b816040516102299190610812565b60405180910390207f48a9350533aee1072d977fa402548cf7bc9c43628650938a94136dfcb70a2c8e60405160405180910390a25050565b8034101561029b576040517fec943a3900000000000000000000000000000000000000000000000000000000815260040160405180910390fd5b347f1205528fd7bf70b3b826aa0dbd2a8391c43bab7e97feaf24288d76e5d8b4577d60405160405180910390a250565b60008054906101000a900473ffffffffffffffffffffffffffffffffffffffff1673ffffffffffffffffffffffffffffffffffffffff163373ffffffffffffffffffffffffffffffffffffffff1614610350576040517f073b27fa00000000000000000000000000000000000000000000000000000000815260040160405180910390fd5b80600260006101000a81548173ffffffffffffffffffffffffffffffffffffffff021916908373ffffffffffffffffffffffffffffffffffffffff1602179055508073ffffffffffffffffffffffffffffffffffffffff167feaef35a8f3c37262c1eba33af7e6d4acf6d202bd39d45cd1d37980fe36f1279860405160405180910390a250565b60008060009054906101000a900473ffffffffffffffffffffffffffffffffffffffff16905090565b60008173ffffffffffffffffffffffffffffffffffffffff16476040516104269061084f565b60006040518083038185875af1925050503d8060008114610463576040519150601f19603f3d011682016040523d82523d6000602084013e610468565b606091505b50509050806104a3576040517f90b8ec1800000000000000000000000000000000000000000000000000000000815260040160405180910390fd5b8173ffffffffffffffffffffffffffffffffffffffff167f7f51d406915971d4ac1c91af96be5187ea6ab64753785aad519a533def80a41e476040516104e99190610873565b60405180910390a25050565b6000604051905090565b600080fd5b600080fd5b6000819050919050565b61051c81610509565b811461052757600080fd5b50565b60008135905061053981610513565b92915050565b600060208284031215610555576105546104ff565b5b60006105638482850161052a565b91505092915050565b600073ffffffffffffffffffffffffffffffffffffffff82169050919050565b60006105978261056c565b9050919050565b6105a78161058c565b81146105b257600080fd5b50565b6000813590506105c48161059e565b92915050565b6000602082840312156105e0576105df6104ff565b5b60006105ee848285016105b5565b91505092915050565b6106008161058c565b82525050565b600060208201905061061b60008301846105f7565b92915050565b600080fd5b600080fd5b6000601f19601f8301169050919050565b7f4e487b7100000000000000000000000000000000000000000000000000000000600052604160045260246000fd5b6106748261062b565b810181811067ffffffffffffffff821117156106935761069261063c565b5b80604052505050565b60006106a66104f5565b90506106b2828261066b565b919050565b600067ffffffffffffffff8211156106d2576106d161063c565b5b6106db8261062b565b9050602081019050919050565b60005b838110156107065780820151818401526020810190506106eb565b60008484015250505050565b6000610725610720846106b7565b61069c565b90508281526020810184848401111561074157610740610626565b5b61074c8482856106e8565b509392505050565b600082601f83011261076957610768610621565b5b8151610779848260208601610712565b91505092915050565b600060208284031215610798576107976104ff565b5b600082015167ffffffffffffffff8111156107b6576107b5610504565b5b6107c284828501610754565b91505092915050565b600081519050919050565b600081905092915050565b60006107ec826107cb565b6107f681856107d6565b93506108068185602086016106e8565b80840191505092915050565b600061081e82846107e1565b915081905092915050565b50565b60006108396000836107d6565b915061084482610829565b600082019050919050565b600061085a8261082c565b9150819050919050565b61086d81610509565b82525050565b60006020820190506108886000830184610864565b9291505056fea2646970667358221220207a85d79636c1048c80027e05995b73ca52c394c430beebd43c7bd858dde9d364736f6c63430008120033a264697066735822122041f451c075e3c582f1907a7cf44fe5f00e56295c79a1a633104ad2b2e437e5a364736f6c63430008120033",
  "linkReferences": {},
  "deployedLinkReferences": {}
}